{
  "abi": [
    {
      "inputs": [
        {
          "internalType": "string",
          "name": "URI",
          "type": "string"
        },
        {
          "internalType": "address",
          "name": "owner1",
          "type": "address"
        },
        {
          "internalType": "address",
          "name": "owner2",
          "type": "address"
        },
        {
          "internalType": "address",
          "name": "owner3",
          "type": "address"
        }
      ],
      "stateMutability": "nonpayable",
      "type": "constructor"
    },
    {
      "inputs": [],
      "name": "AlreadyHolder",
      "type": "error"
    },
    {
      "inputs": [],
      "name": "Already_set_as_owner",
      "type": "error"
    },
    {
      "inputs": [
        {
          "internalType": "address",
          "name": "sender",
          "type": "address"
        },
        {
          "internalType": "uint256",
          "name": "balance",
          "type": "uint256"
        },
        {
          "internalType": "uint256",
          "name": "needed",
          "type": "uint256"
        },
        {
          "internalType": "uint256",
          "name": "tokenId",
          "type": "uint256"
        }
      ],
      "name": "ERC1155InsufficientBalance",
      "type": "error"
    },
    {
      "inputs": [
        {
          "internalType": "address",
          "name": "approver",
          "type": "address"
        }
      ],
      "name": "ERC1155InvalidApprover",
      "type": "error"
    },
    {
      "inputs": [
        {
          "internalType": "uint256",
          "name": "idsLength",
          "type": "uint256"
        },
        {
          "internalType": "uint256",
          "name": "valuesLength",
          "type": "uint256"
        }
      ],
      "name": "ERC1155InvalidArrayLength",
      "type": "error"
    },
    {
      "inputs": [
        {
          "internalType": "address",
          "name": "operator",
          "type": "address"
        }
      ],
      "name": "ERC1155InvalidOperator",
      "type": "error"
    },
    {
      "inputs": [
        {
          "internalType": "address",
          "name": "receiver",
          "type": "address"
        }
      ],
      "name": "ERC1155InvalidReceiver",
      "type": "error"
    },
    {
      "inputs": [
        {
          "internalType": "address",
          "name": "sender",
          "type": "address"
        }
      ],
      "name": "ERC1155InvalidSender",
      "type": "error"
    },
    {
      "inputs": [
        {
          "internalType": "address",
          "name": "operator",
          "type": "address"
        },
        {
          "internalType": "address",
          "name": "owner",
          "type": "address"
        }
      ],
      "name": "ERC1155MissingApprovalForAll",
      "type": "error"
    },
    {
      "inputs": [],
      "name": "HashNFTRequired",
      "type": "error"
    },
    {
      "inputs": [],
      "name": "InvalidCall",
      "type": "error"
    },
    {
      "inputs": [],
      "name": "InvalidId",
      "type": "error"
    },
    {
      "inputs": [],
      "name": "OnlyOwner",
      "type": "error"
    },
    {
      "inputs": [],
      "name": "Public_Mint_Limit_Reached_So_Closed_For_Now",
      "type": "error"
    },
    {
      "inputs": [],
      "name": "Public_Minting_Is_Disabled",
      "type": "error"
    },
    {
      "inputs": [],
      "name": "ReentrancyGuardReentrantCall",
      "type": "error"
    },
    {
      "inputs": [],
      "name": "Token_Is_Non_Tradable",
      "type": "error"
    },
    {
      "inputs": [
        {
          "internalType": "address",
          "name": "caller",
          "type": "address"
        }
      ],
      "name": "Unauthorized_caller",
      "type": "error"
    },
    {
      "inputs": [],
      "name": "Whitelist_Mint_Limit_Reached_So_Closed_For_Now",
      "type": "error"
    },
    {
      "inputs": [],
      "name": "Whitelist_Minting_Is_Disabled",
      "type": "error"
    },
    {
      "inputs": [],
      "name": "Zero_Address",
      "type": "error"
    },
    {
      "inputs": [],
      "name": "Zero_address",
      "type": "error"
    },
    {
      "anonymous": false,
      "inputs": [
        {
          "indexed": true,
          "internalType": "address",
          "name": "account",
          "type": "address"
        },
        {
          "indexed": true,
          "internalType": "address",
          "name": "operator",
          "type": "address"
        },
        {
          "indexed": false,
          "internalType": "bool",
          "name": "approved",
          "type": "bool"
        }
      ],
      "name": "ApprovalForAll",
      "type": "event"
    },
    {
      "anonymous": false,
      "inputs": [
        {
          "indexed": false,
          "internalType": "address",
          "name": "_address",
          "type": "address"
        },
        {
          "indexed": false,
          "internalType": "uint256",
          "name": "_id",
          "type": "uint256"
        }
      ],
      "name": "MintedTo",
      "type": "event"
    },
    {
      "anonymous": false,
      "inputs": [
        {
          "indexed": false,
          "internalType": "address",
          "name": "_address",
          "type": "address"
        },
        {
          "indexed": false,
          "internalType": "uint256",
          "name": "_id",
          "type": "uint256"
        }
      ],
      "name": "MintedToWhitelistedAddress",
      "type": "event"
    },
    {
      "anonymous": false,
      "inputs": [
        {
          "indexed": true,
          "internalType": "address",
          "name": "operator",
          "type": "address"
        },
        {
          "indexed": true,
          "internalType": "address",
          "name": "from",
          "type": "address"
        },
        {
          "indexed": true,
          "internalType": "address",
          "name": "to",
          "type": "address"
        },
        {
          "indexed": false,
          "internalType": "uint256[]",
          "name": "ids",
          "type": "uint256[]"
        },
        {
          "indexed": false,
          "internalType": "uint256[]",
          "name": "values",
          "type": "uint256[]"
        }
      ],
      "name": "TransferBatch",
      "type": "event"
    },
    {
      "anonymous": false,
      "inputs": [
        {
          "indexed": true,
          "internalType": "address",
          "name": "operator",
          "type": "address"
        },
        {
          "indexed": true,
          "internalType": "address",
          "name": "from",
          "type": "address"
        },
        {
          "indexed": true,
          "internalType": "address",
          "name": "to",
          "type": "address"
        },
        {
          "indexed": false,
          "internalType": "uint256",
          "name": "id",
          "type": "uint256"
        },
        {
          "indexed": false,
          "internalType": "uint256",
          "name": "value",
          "type": "uint256"
        }
      ],
      "name": "TransferSingle",
      "type": "event"
    },
    {
      "anonymous": false,
      "inputs": [
        {
          "indexed": false,
          "internalType": "string",
          "name": "value",
          "type": "string"
        },
        {
          "indexed": true,
          "internalType": "uint256",
          "name": "id",
          "type": "uint256"
        }
      ],
      "name": "URI",
      "type": "event"
    },
    {
      "anonymous": false,
      "inputs": [
        {
          "indexed": false,
          "internalType": "string",
          "name": "_newURI",
          "type": "string"
        }
      ],
      "name": "URIChanged",
      "type": "event"
    },
    {
      "inputs": [],
      "name": "Ayahuasca",
      "outputs": [
        {
          "internalType": "uint8",
          "name": "",
          "type": "uint8"
        }
      ],
      "stateMutability": "view",
      "type": "function"
    },
    {
      "inputs": [],
      "name": "Datura",
      "outputs": [
        {
          "internalType": "uint8",
          "name": "",
          "type": "uint8"
        }
      ],
      "stateMutability": "view",
      "type": "function"
    },
    {
      "inputs": [],
      "name": "Iboga",
      "outputs": [
        {
          "internalType": "uint8",
          "name": "",
          "type": "uint8"
        }
      ],
      "stateMutability": "view",
      "type": "function"
    },
    {
      "inputs": [],
      "name": "Kava",
      "outputs": [
        {
          "internalType": "uint8",
          "name": "",
          "type": "uint8"
        }
      ],
      "stateMutability": "view",
      "type": "function"
    },
    {
      "inputs": [],
      "name": "Peyote",
      "outputs": [
        {
          "internalType": "uint8",
          "name": "",
          "type": "uint8"
        }
      ],
      "stateMutability": "view",
      "type": "function"
    },
    {
      "inputs": [],
      "name": "WhitelistHouseMintLimit",
      "outputs": [
        {
          "internalType": "uint256",
          "name": "",
          "type": "uint256"
        }
      ],
      "stateMutability": "view",
      "type": "function"
    },
    {
      "inputs": [
        {
          "internalType": "address",
          "name": "account",
          "type": "address"
        },
        {
          "internalType": "uint256",
          "name": "id",
          "type": "uint256"
        }
      ],
      "name": "balanceOf",
      "outputs": [
        {
          "internalType": "uint256",
          "name": "",
          "type": "uint256"
        }
      ],
      "stateMutability": "view",
      "type": "function"
    },
    {
      "inputs": [
        {
          "internalType": "address[]",
          "name": "accounts",
          "type": "address[]"
        },
        {
          "internalType": "uint256[]",
          "name": "ids",
          "type": "uint256[]"
        }
      ],
      "name": "balanceOfBatch",
      "outputs": [
        {
          "internalType": "uint256[]",
          "name": "",
          "type": "uint256[]"
        }
      ],
      "stateMutability": "view",
      "type": "function"
    },
    {
      "inputs": [
        {
          "internalType": "address",
          "name": "_newOwner",
          "type": "address"
        }
      ],
      "name": "changeFirstOwner",
      "outputs": [],
      "stateMutability": "nonpayable",
      "type": "function"
    },
    {
      "inputs": [
        {
          "internalType": "address",
          "name": "_newOwner",
          "type": "address"
        }
      ],
      "name": "changeSecondOwner",
      "outputs": [],
      "stateMutability": "nonpayable",
      "type": "function"
    },
    {
      "inputs": [
        {
          "internalType": "address",
          "name": "_newOwner",
          "type": "address"
        }
      ],
      "name": "changeThirdOwner",
      "outputs": [],
      "stateMutability": "nonpayable",
      "type": "function"
    },
    {
      "inputs": [
        {
          "internalType": "address",
          "name": "_address",
          "type": "address"
        }
      ],
      "name": "getHouseIdByAddress",
      "outputs": [
        {
          "internalType": "uint256[]",
          "name": "",
          "type": "uint256[]"
        }
      ],
      "stateMutability": "view",
      "type": "function"
    },
    {
      "inputs": [
        {
          "internalType": "address",
          "name": "account",
          "type": "address"
        },
        {
          "internalType": "address",
          "name": "operator",
          "type": "address"
        }
      ],
      "name": "isApprovedForAll",
      "outputs": [
        {
          "internalType": "bool",
          "name": "",
          "type": "bool"
        }
      ],
      "stateMutability": "view",
      "type": "function"
    },
    {
      "inputs": [
        {
          "internalType": "uint256",
          "name": "_id",
          "type": "uint256"
        }
      ],
      "name": "mint",
      "outputs": [],
      "stateMutability": "nonpayable",
      "type": "function"
    },
    {
      "inputs": [],
      "name": "owner1",
      "outputs": [
        {
          "internalType": "address",
          "name": "",
          "type": "address"
        }
      ],
      "stateMutability": "view",
      "type": "function"
    },
    {
      "inputs": [],
      "name": "owner2",
      "outputs": [
        {
          "internalType": "address",
          "name": "",
          "type": "address"
        }
      ],
      "stateMutability": "view",
      "type": "function"
    },
    {
      "inputs": [],
      "name": "owner3",
      "outputs": [
        {
          "internalType": "address",
          "name": "",
          "type": "address"
        }
      ],
      "stateMutability": "view",
      "type": "function"
    },
    {
      "inputs": [],
      "name": "publicHouseMintLimit",
      "outputs": [
        {
          "internalType": "uint256",
          "name": "",
          "type": "uint256"
        }
      ],
      "stateMutability": "view",
      "type": "function"
    },
    {
      "inputs": [],
      "name": "publicMinting",
      "outputs": [
        {
          "internalType": "enum HouseNFT.PublicMinting",
          "name": "",
          "type": "uint8"
        }
      ],
      "stateMutability": "view",
      "type": "function"
    },
    {
      "inputs": [],
      "name": "renounceOwnership",
      "outputs": [],
      "stateMutability": "nonpayable",
      "type": "function"
    },
    {
      "inputs": [
        {
          "internalType": "address",
          "name": "from",
          "type": "address"
        },
        {
          "internalType": "address",
          "name": "to",
          "type": "address"
        },
        {
          "internalType": "uint256[]",
          "name": "ids",
          "type": "uint256[]"
        },
        {
          "internalType": "uint256[]",
          "name": "values",
          "type": "uint256[]"
        },
        {
          "internalType": "bytes",
          "name": "data",
          "type": "bytes"
        }
      ],
      "name": "safeBatchTransferFrom",
      "outputs": [],
      "stateMutability": "nonpayable",
      "type": "function"
    },
    {
      "inputs": [
        {
          "internalType": "address",
          "name": "from",
          "type": "address"
        },
        {
          "internalType": "address",
          "name": "to",
          "type": "address"
        },
        {
          "internalType": "uint256",
          "name": "id",
          "type": "uint256"
        },
        {
          "internalType": "uint256",
          "name": "value",
          "type": "uint256"
        },
        {
          "internalType": "bytes",
          "name": "data",
          "type": "bytes"
        }
      ],
      "name": "safeTransferFrom",
      "outputs": [],
      "stateMutability": "nonpayable",
      "type": "function"
    },
    {
      "inputs": [
        {
          "internalType": "address",
          "name": "operator",
          "type": "address"
        },
        {
          "internalType": "bool",
          "name": "approved",
          "type": "bool"
        }
      ],
      "name": "setApprovalForAll",
      "outputs": [],
      "stateMutability": "nonpayable",
      "type": "function"
    },
    {
      "inputs": [
        {
          "internalType": "uint256",
          "name": "_limit",
          "type": "uint256"
        }
      ],
      "name": "setPublicHouseMintingLimit",
      "outputs": [],
      "stateMutability": "nonpayable",
      "type": "function"
    },
    {
      "inputs": [],
      "name": "setPublicMintingMode",
      "outputs": [],
      "stateMutability": "nonpayable",
      "type": "function"
    },
    {
      "inputs": [
        {
          "internalType": "string",
          "name": "_newURI",
          "type": "string"
        }
      ],
      "name": "setURI",
      "outputs": [],
      "stateMutability": "nonpayable",
      "type": "function"
    },
    {
      "inputs": [
        {
          "internalType": "uint256",
          "name": "_limit",
          "type": "uint256"
        }
      ],
      "name": "setWhitelistHouseMintingLimit",
      "outputs": [],
      "stateMutability": "nonpayable",
      "type": "function"
    },
    {
      "inputs": [],
      "name": "setWhitelistMintingMode",
      "outputs": [],
      "stateMutability": "nonpayable",
      "type": "function"
    },
    {
      "inputs": [
        {
          "internalType": "bytes4",
          "name": "interfaceId",
          "type": "bytes4"
        }
      ],
      "name": "supportsInterface",
      "outputs": [
        {
          "internalType": "bool",
          "name": "",
          "type": "bool"
        }
      ],
      "stateMutability": "view",
      "type": "function"
    },
    {
      "inputs": [],
      "name": "trackPublicHouseMintTotal",
      "outputs": [
        {
          "internalType": "uint256",
          "name": "",
          "type": "uint256"
        }
      ],
      "stateMutability": "view",
      "type": "function"
    },
    {
      "inputs": [],
      "name": "trackWhitelistHouseMintTotal",
      "outputs": [
        {
          "internalType": "uint256",
          "name": "",
          "type": "uint256"
        }
      ],
      "stateMutability": "view",
      "type": "function"
    },
    {
      "inputs": [
        {
          "internalType": "uint256",
          "name": "",
          "type": "uint256"
        }
      ],
      "name": "uri",
      "outputs": [
        {
          "internalType": "string",
          "name": "",
          "type": "string"
        }
      ],
      "stateMutability": "view",
      "type": "function"
    },
    {
      "inputs": [
        {
          "internalType": "uint256",
          "name": "_id",
          "type": "uint256"
        }
      ],
      "name": "whitelistMint",
      "outputs": [],
      "stateMutability": "nonpayable",
      "type": "function"
    },
    {
      "inputs": [],
      "name": "whitelistMinting",
      "outputs": [
        {
          "internalType": "enum HouseNFT.WhitelistMinting",
          "name": "",
          "type": "uint8"
        }
      ],
      "stateMutability": "view",
      "type": "function"
    }
  ],
  "bytecode": {
    "object": "0x60806040523480156200001157600080fd5b506040516200250838038062002508833981016040819052620000349162000126565b828282866200004381620000e1565b5060016003556001600160a01b03831615806200006757506001600160a01b038216155b806200007a57506001600160a01b038116155b1562000099576040516333283ea560e01b815260040160405180910390fd5b600480546001600160a01b039485166001600160a01b031991821617909155600580549385169382169390931790925560068054919093169116179055506200038e92505050565b6002620000ef8282620002c2565b5050565b634e487b7160e01b600052604160045260246000fd5b80516001600160a01b03811681146200012157600080fd5b919050565b600080600080608085870312156200013d57600080fd5b84516001600160401b03808211156200015557600080fd5b818701915087601f8301126200016a57600080fd5b8151818111156200017f576200017f620000f3565b604051601f8201601f19908116603f01168101908382118183101715620001aa57620001aa620000f3565b81604052828152602093508a84848701011115620001c757600080fd5b600091505b82821015620001eb5784820184015181830185015290830190620001cc565b60008484830101528098505050506200020681880162000109565b94505050620002186040860162000109565b9150620002286060860162000109565b905092959194509250565b600181811c908216806200024857607f821691505b6020821081036200026957634e487b7160e01b600052602260045260246000fd5b50919050565b601f821115620002bd57600081815260208120601f850160051c81016020861015620002985750805b601f850160051c820191505b81811015620002b957828155600101620002a4565b5050505b505050565b81516001600160401b03811115620002de57620002de620000f3565b620002f681620002ef845462000233565b846200026f565b602080601f8311600181146200032e5760008415620003155750858301515b600019600386901b1c1916600185901b178555620002b9565b600085815260208120601f198616915b828110156200035f578886015182559484019460019091019084016200033e565b50858210156200037e5787850151600019600388901b60f8161c191681555b5050505050600190811b01905550565b61216a806200039e6000396000f3fe608060405234801561001057600080fd5b50600436106102055760003560e01c80636992d2291161011a578063aba3f7b4116100ad578063dae6d09e1161007c578063dae6d09e1461043f578063e985e9c514610447578063f0c4a53f1461045a578063f242432a1461046d578063fc6530a01461048057600080fd5b8063aba3f7b414610408578063b1c2abc514610411578063b6f36dcf14610424578063d33930071461043757600080fd5b8063868ff4a2116100e9578063868ff4a2146103c75780639fb21b67146103da578063a0712d68146103e2578063a22cb465146103f557600080fd5b80636992d2291461038557806369a139ca14610399578063715018a6146103ac57806373688914146103b457600080fd5b80631f4ffd2c1161019d5780634e1273f41161016c5780634e1273f4146102fd578063527097251461031d57806353ac010a146103485780635f6d050714610369578063659e13741461037257600080fd5b80631f4ffd2c146102bb5780632979c180146102c45780632a22ecce146102d75780632eb2c2d6146102ea57600080fd5b8063090f4307116101d9578063090f4307146102825780630a26fc991461028a5780630d28b6ab146102935780630e89341c1461029b57600080fd5b8062fdd58e1461020a57806301ffc9a71461023057806302fe5305146102535780630847566a14610268575b600080fd5b61021d610218366004611946565b610488565b6040519081526020015b60405180910390f35b61024361023e366004611986565b6104b0565b6040519015158152602001610227565b610266610261366004611a49565b610500565b005b610270600381565b60405160ff9091168152602001610227565b6102666105a5565b61021d600a5481565b610270600281565b6102ae6102a9366004611a9a565b610679565b6040516102279190611af9565b61021d60085481565b6102666102d2366004611b0c565b61070d565b6102666102e5366004611a9a565b610812565b6102666102f8366004611bd6565b610874565b61031061030b366004611c80565b6108e3565b6040516102279190611d7b565b600554610330906001600160a01b031681565b6040516001600160a01b039091168152602001610227565b60065461035c90600160a81b900460ff1681565b6040516102279190611dc2565b61021d60075481565b610310610380366004611b0c565b6109b8565b60065461035c90600160a01b900460ff1681565b6102666103a7366004611b0c565b610a23565b610266610b28565b600454610330906001600160a01b031681565b6102666103d5366004611a9a565b610c0c565b610270600181565b6102666103f0366004611a9a565b610df1565b610266610403366004611dd5565b610f90565b61021d60095481565b61026661041f366004611a9a565b610f9f565b600654610330906001600160a01b031681565b610270600481565b610266611001565b610243610455366004611e11565b6110dc565b610266610468366004611b0c565b61110a565b61026661047b366004611e44565b61120f565b610270600081565b6000818152602081815260408083206001600160a01b03861684529091529020545b92915050565b60006001600160e01b03198216636cdb3d1360e11b14806104e157506001600160e01b031982166303a24d0760e21b145b806104aa57506301ffc9a760e01b6001600160e01b03198316146104aa565b6004546001600160a01b0316331480159061052657506005546001600160a01b03163314155b801561053d57506006546001600160a01b03163314155b156105625760405163359d44e960e21b81523360048201526024015b60405180910390fd5b61056b81611276565b7fbd06d92759c326896ec0f7c3a981e801ae4644e020f89b2a198909b692df0ddd8160405161059a9190611af9565b60405180910390a150565b6004546001600160a01b031633148015906105cb57506005546001600160a01b03163314155b80156105e257506006546001600160a01b03163314155b156106025760405163359d44e960e21b8152336004820152602401610559565b6000600654600160a01b900460ff16600181111561062257610622611d8e565b0361064457600680546001919060ff60a01b1916600160a01b835b0217905550565b6001600654600160a01b900460ff16600181111561066457610664611d8e565b03610677576006805460ff60a01b191690555b565b60606002805461068890611ea9565b80601f01602080910402602001604051908101604052809291908181526020018280546106b490611ea9565b80156107015780601f106106d657610100808354040283529160200191610701565b820191906000526020600020905b8154815290600101906020018083116106e457829003601f168201915b50505050509050919050565b6004546001600160a01b0316331480159061073357506005546001600160a01b03163314155b801561074a57506006546001600160a01b03163314155b1561076a5760405163359d44e960e21b8152336004820152602401610559565b6005546001600160a01b038281169116148061079357506006546001600160a01b038281169116145b806107ab57506004546001600160a01b038281169116145b156107c957604051633323d3c760e01b815260040160405180910390fd5b6001600160a01b0381166107f0576040516333283ea560e01b815260040160405180910390fd5b600480546001600160a01b0319166001600160a01b0392909216919091179055565b6004546001600160a01b0316331480159061083857506005546001600160a01b03163314155b801561084f57506006546001600160a01b03163314155b1561086f5760405163359d44e960e21b8152336004820152602401610559565b600755565b61087c611282565b336001600160a01b038616811480159061089d575061089b86826110dc565b155b156108ce5760405163711bec9160e11b81526001600160a01b03808316600483015287166024820152604401610559565b6108db868686868661129b565b505050505050565b606081518351146109145781518351604051635b05999160e01b815260048101929092526024820152604401610559565b6000835167ffffffffffffffff811115610930576109306119aa565b604051908082528060200260200182016040528015610959578160200160208202803683370190505b50905060005b84518110156109b05760208082028601015161098390602080840287010151610488565b82828151811061099557610995611ee3565b60209081029190910101526109a981611f0f565b905061095f565b509392505050565b6001600160a01b0381166000908152600c602090815260409182902080548351818402810184019094528084526060939283018282801561070157602002820191906000526020600020905b815481526020019060010190808311610a045750505050509050919050565b6004546001600160a01b03163314801590610a4957506005546001600160a01b03163314155b8015610a6057506006546001600160a01b03163314155b15610a805760405163359d44e960e21b8152336004820152602401610559565b6004546001600160a01b0382811691161480610aa957506006546001600160a01b038281169116145b80610ac157506005546001600160a01b038281169116145b15610adf57604051633323d3c760e01b815260040160405180910390fd5b6001600160a01b038116610b06576040516333283ea560e01b815260040160405180910390fd5b600580546001600160a01b0319166001600160a01b0392909216919091179055565b6004546001600160a01b03163314801590610b4e57506005546001600160a01b03163314155b8015610b6557506006546001600160a01b03163314155b15610b855760405163359d44e960e21b8152336004820152602401610559565b6004546001600160a01b03163303610ba957600480546001600160a01b0319169055565b6005546001600160a01b03163303610bcd57600580546001600160a01b0319169055565b6006546001600160a01b03163303610bf157600680546001600160a01b0319169055565b60405163359d44e960e21b8152336004820152602401610559565b610c14611302565b3380610c33576040516314f285b760e31b815260040160405180910390fd5b6001600654600160a01b900460ff166001811115610c5357610c53611d8e565b14610c71576040516344a9104960e01b815260040160405180910390fd5b600854600a5403610ca3576006805460ff60a01b191690556040805163686a285360e01b815290519081900360040190fd5b6004821180610cb0575060005b15610cce57604051631bf4348160e31b815260040160405180910390fd5b6000610cda3384610488565b90508015610cfb5760405163c794d6a960e01b815260040160405180910390fd5b336000908152600b602052604081205460ff166001811115610d1f57610d1f611d8e565b03610dc957336000818152600b60209081526040808320805460ff19166001908117909155600c835281842080549182018155845292829020909201869055815192835282018590527fc0fe1a6d94d360b3000344805eb4d0c4afd8b85cc9f0552cd066209961142fca910160405180910390a1600a8054906000610da383611f0f565b9190505550610dc4338460016040518060200160405280600081525061132c565b610de2565b60405163c794d6a960e01b815260040160405180910390fd5b5050610dee6001600355565b50565b610df9611302565b3380610e18576040516314f285b760e31b815260040160405180910390fd5b6000600654600160a81b900460ff166001811115610e3857610e38611d8e565b14610e565760405163cecce69160e01b815260040160405180910390fd5b60075460095403610e905760068054600160a81b60ff60a81b19909116179055604080516340d562bd60e01b815290519081900360040190fd5b6004821180610e9d575060005b15610ebb57604051631bf4348160e31b815260040160405180910390fd5b6000610ec73384610488565b90508015610ee85760405163c794d6a960e01b815260040160405180910390fd5b336000908152600b602052604081205460ff166001811115610f0c57610f0c611d8e565b03610dc957336000818152600b60209081526040808320805460ff19166001908117909155600c835281842080549182018155845292829020909201869055815192835282018590527f99dbff6288c84ae02a8b4165303576ec29421d3a2e283c8e1782da6bcc08e320910160405180910390a160098054906000610da383611f0f565b610f9b338383611389565b5050565b6004546001600160a01b03163314801590610fc557506005546001600160a01b03163314155b8015610fdc57506006546001600160a01b03163314155b15610ffc5760405163359d44e960e21b8152336004820152602401610559565b600855565b6004546001600160a01b0316331480159061102757506005546001600160a01b03163314155b801561103e57506006546001600160a01b03163314155b1561105e5760405163359d44e960e21b8152336004820152602401610559565b6001600654600160a81b900460ff16600181111561107e5761107e611d8e565b0361109d57600680546000919060ff60a81b1916600160a81b8361063d565b6000600654600160a81b900460ff1660018111156110bd576110bd611d8e565b0361067757600680546001919060ff60a81b1916600160a81b8361063d565b6001600160a01b03918216600090815260016020908152604080832093909416825291909152205460ff1690565b6004546001600160a01b0316331480159061113057506005546001600160a01b03163314155b801561114757506006546001600160a01b03163314155b156111675760405163359d44e960e21b8152336004820152602401610559565b6004546001600160a01b038281169116148061119057506005546001600160a01b038281169116145b806111a857506006546001600160a01b038281169116145b156111c657604051633323d3c760e01b815260040160405180910390fd5b6001600160a01b0381166111ed576040516333283ea560e01b815260040160405180910390fd5b600680546001600160a01b0319166001600160a01b0392909216919091179055565b611217611282565b336001600160a01b0386168114801590611238575061123686826110dc565b155b156112695760405163711bec9160e11b81526001600160a01b03808316600483015287166024820152604401610559565b6108db868686868661141f565b6002610f9b8282611f73565b60405163cd35338560e01b815260040160405180910390fd5b6001600160a01b0384166112c557604051632bfa23e760e11b815260006004820152602401610559565b6001600160a01b0385166112ee57604051626a0d4560e21b815260006004820152602401610559565b6112fb85858585856114ad565b5050505050565b60026003540361132557604051633ee5aeb560e01b815260040160405180910390fd5b6002600355565b6001600160a01b03841661135657604051632bfa23e760e11b815260006004820152602401610559565b604080516001808252602082018690528183019081526060820185905260808201909252906108db6000878484876114ad565b6001600160a01b0382166113b25760405162ced3e160e81b815260006004820152602401610559565b6001600160a01b03838116600081815260016020908152604080832094871680845294825291829020805460ff191686151590811790915591519182527f17307eab39ab6107e8899845ad3d59bd9653f200f220920489ca2b5937696c31910160405180910390a3505050565b6001600160a01b03841661144957604051632bfa23e760e11b815260006004820152602401610559565b6001600160a01b03851661147257604051626a0d4560e21b815260006004820152602401610559565b604080516001808252602082018690528183019081526060820185905260808201909252906114a487878484876114ad565b50505050505050565b6114b985858585611500565b6001600160a01b038416156112fb57825133906001036114f257602084810151908401516114eb83898985858961171d565b50506108db565b6108db818787878787611841565b805182511461152f5781518151604051635b05999160e01b815260048101929092526024820152604401610559565b3360005b835181101561163e576020818102858101820151908501909101516001600160a01b038816156115e6576000828152602081815260408083206001600160a01b038c168452909152902054818110156115bf576040516303dee4c560e01b81526001600160a01b038a166004820152602481018290526044810183905260648101849052608401610559565b6000838152602081815260408083206001600160a01b038d16845290915290209082900390555b6001600160a01b0387161561162b576000828152602081815260408083206001600160a01b038b16845290915281208054839290611625908490612033565b90915550505b50508061163790611f0f565b9050611533565b5082516001036116bf5760208301516000906020840151909150856001600160a01b0316876001600160a01b0316846001600160a01b03167fc3d58168c5ae7397731d063d5bbf3d657854427343f4c083240f7aacaa2d0f6285856040516116b0929190918252602082015260400190565b60405180910390a450506112fb565b836001600160a01b0316856001600160a01b0316826001600160a01b03167f4a39dc06d4c0dbc64b70af90fd698a233a518aa5d07e595d983b8c0526c8f7fb868660405161170e929190612046565b60405180910390a45050505050565b6001600160a01b0384163b156108db5760405163f23a6e6160e01b81526001600160a01b0385169063f23a6e61906117619089908990889088908890600401612074565b6020604051808303816000875af192505050801561179c575060408051601f3d908101601f19168201909252611799918101906120b9565b60015b611805573d8080156117ca576040519150601f19603f3d011682016040523d82523d6000602084013e6117cf565b606091505b5080516000036117fd57604051632bfa23e760e11b81526001600160a01b0386166004820152602401610559565b805181602001fd5b6001600160e01b0319811663f23a6e6160e01b146114a457604051632bfa23e760e11b81526001600160a01b0386166004820152602401610559565b6001600160a01b0384163b156108db5760405163bc197c8160e01b81526001600160a01b0385169063bc197c819061188590899089908890889088906004016120d6565b6020604051808303816000875af19250505080156118c0575060408051601f3d908101601f191682019092526118bd918101906120b9565b60015b6118ee573d8080156117ca576040519150601f19603f3d011682016040523d82523d6000602084013e6117cf565b6001600160e01b0319811663bc197c8160e01b146114a457604051632bfa23e760e11b81526001600160a01b0386166004820152602401610559565b80356001600160a01b038116811461194157600080fd5b919050565b6000806040838503121561195957600080fd5b6119628361192a565b946020939093013593505050565b6001600160e01b031981168114610dee57600080fd5b60006020828403121561199857600080fd5b81356119a381611970565b9392505050565b634e487b7160e01b600052604160045260246000fd5b604051601f8201601f1916810167ffffffffffffffff811182821017156119e9576119e96119aa565b604052919050565b600067ffffffffffffffff831115611a0b57611a0b6119aa565b611a1e601f8401601f19166020016119c0565b9050828152838383011115611a3257600080fd5b828260208301376000602084830101529392505050565b600060208284031215611a5b57600080fd5b813567ffffffffffffffff811115611a7257600080fd5b8201601f81018413611a8357600080fd5b611a92848235602084016119f1565b949350505050565b600060208284031215611aac57600080fd5b5035919050565b6000815180845260005b81811015611ad957602081850181015186830182015201611abd565b506000602082860101526020601f19601f83011685010191505092915050565b6020815260006119a36020830184611ab3565b600060208284031215611b1e57600080fd5b6119a38261192a565b600067ffffffffffffffff821115611b4157611b416119aa565b5060051b60200190565b600082601f830112611b5c57600080fd5b81356020611b71611b6c83611b27565b6119c0565b82815260059290921b84018101918181019086841115611b9057600080fd5b8286015b84811015611bab5780358352918301918301611b94565b509695505050505050565b600082601f830112611bc757600080fd5b6119a3838335602085016119f1565b600080600080600060a08688031215611bee57600080fd5b611bf78661192a565b9450611c056020870161192a565b9350604086013567ffffffffffffffff80821115611c2257600080fd5b611c2e89838a01611b4b565b94506060880135915080821115611c4457600080fd5b611c5089838a01611b4b565b93506080880135915080821115611c6657600080fd5b50611c7388828901611bb6565b9150509295509295909350565b60008060408385031215611c9357600080fd5b823567ffffffffffffffff80821115611cab57600080fd5b818501915085601f830112611cbf57600080fd5b81356020611ccf611b6c83611b27565b82815260059290921b84018101918181019089841115611cee57600080fd5b948201945b83861015611d1357611d048661192a565b82529482019490820190611cf3565b96505086013592505080821115611d2957600080fd5b50611d3685828601611b4b565b9150509250929050565b600081518084526020808501945080840160005b83811015611d7057815187529582019590820190600101611d54565b509495945050505050565b6020815260006119a36020830184611d40565b634e487b7160e01b600052602160045260246000fd5b60028110610dee57634e487b7160e01b600052602160045260246000fd5b60208101611dcf83611da4565b91905290565b60008060408385031215611de857600080fd5b611df18361192a565b915060208301358015158114611e0657600080fd5b809150509250929050565b60008060408385031215611e2457600080fd5b611e2d8361192a565b9150611e3b6020840161192a565b90509250929050565b600080600080600060a08688031215611e5c57600080fd5b611e658661192a565b9450611e736020870161192a565b93506040860135925060608601359150608086013567ffffffffffffffff811115611e9d57600080fd5b611c7388828901611bb6565b600181811c90821680611ebd57607f821691505b602082108103611edd57634e487b7160e01b600052602260045260246000fd5b50919050565b634e487b7160e01b600052603260045260246000fd5b634e487b7160e01b600052601160045260246000fd5b600060018201611f2157611f21611ef9565b5060010190565b601f821115611f6e57600081815260208120601f850160051c81016020861015611f4f5750805b601f850160051c820191505b818110156108db57828155600101611f5b565b505050565b815167ffffffffffffffff811115611f8d57611f8d6119aa565b611fa181611f9b8454611ea9565b84611f28565b602080601f831160018114611fd65760008415611fbe5750858301515b600019600386901b1c1916600185901b1785556108db565b600085815260208120601f198616915b8281101561200557888601518255948401946001909101908401611fe6565b50858210156120235787850151600019600388901b60f8161c191681555b5050505050600190811b01905550565b808201808211156104aa576104aa611ef9565b6040815260006120596040830185611d40565b828103602084015261206b8185611d40565b95945050505050565b6001600160a01b03868116825285166020820152604081018490526060810183905260a0608082018190526000906120ae90830184611ab3565b979650505050505050565b6000602082840312156120cb57600080fd5b81516119a381611970565b6001600160a01b0386811682528516602082015260a06040820181905260009061210290830186611d40565b82810360608401526121148186611d40565b905082810360808401526121288185611ab3565b9897505050505050505056fea2646970667358221220e53a6820cfa059100d0904fa6c520b4d7ab4ef1e2da468d1dc2b32b31025f54264736f6c63430008140033",
    "linkReferences": {}
  },
  "methodIdentifiers": {
    "Ayahuasca()": "0847566a",
    "Datura()": "fc6530a0",
    "Iboga()": "9fb21b67",
    "Kava()": "d3393007",
    "Peyote()": "0d28b6ab",
    "WhitelistHouseMintLimit()": "1f4ffd2c",
    "balanceOf(address,uint256)": "00fdd58e",
    "balanceOfBatch(address[],uint256[])": "4e1273f4",
    "changeFirstOwner(address)": "2979c180",
    "changeSecondOwner(address)": "69a139ca",
    "changeThirdOwner(address)": "f0c4a53f",
    "getHouseIdByAddress(address)": "659e1374",
    "isApprovedForAll(address,address)": "e985e9c5",
    "mint(uint256)": "a0712d68",
    "owner1()": "73688914",
    "owner2()": "52709725",
    "owner3()": "b6f36dcf",
    "publicHouseMintLimit()": "5f6d0507",
    "publicMinting()": "53ac010a",
    "renounceOwnership()": "715018a6",
    "safeBatchTransferFrom(address,address,uint256[],uint256[],bytes)": "2eb2c2d6",
    "safeTransferFrom(address,address,uint256,uint256,bytes)": "f242432a",
    "setApprovalForAll(address,bool)": "a22cb465",
    "setPublicHouseMintingLimit(uint256)": "2a22ecce",
    "setPublicMintingMode()": "dae6d09e",
    "setURI(string)": "02fe5305",
    "setWhitelistHouseMintingLimit(uint256)": "b1c2abc5",
    "setWhitelistMintingMode()": "090f4307",
    "supportsInterface(bytes4)": "01ffc9a7",
    "trackPublicHouseMintTotal()": "aba3f7b4",
    "trackWhitelistHouseMintTotal()": "0a26fc99",
    "uri(uint256)": "0e89341c",
    "whitelistMint(uint256)": "868ff4a2",
    "whitelistMinting()": "6992d229"
  },
  "id": 32
}